{
  "contractName": "RealEstateContract",
  "abi": [
    {
      "inputs": [],
      "stateMutability": "nonpayable",
      "type": "constructor"
    },
    {
      "anonymous": false,
      "inputs": [
        {
          "indexed": false,
          "internalType": "address",
          "name": "_owner",
          "type": "address"
        },
        {
          "indexed": false,
          "internalType": "uint256",
          "name": "_id",
          "type": "uint256"
        }
      ],
      "name": "Register",
      "type": "event"
    },
    {
      "anonymous": false,
      "inputs": [
        {
          "indexed": true,
          "internalType": "address",
          "name": "_from",
          "type": "address"
        },
        {
          "indexed": true,
          "internalType": "address",
          "name": "_to",
          "type": "address"
        },
        {
          "indexed": false,
          "internalType": "uint256",
          "name": "_id",
          "type": "uint256"
        }
      ],
      "name": "Transfer",
      "type": "event"
    },
    {
      "inputs": [
        {
          "internalType": "address",
          "name": "",
          "type": "address"
        }
      ],
      "name": "estates",
      "outputs": [
        {
          "internalType": "uint256",
          "name": "id",
          "type": "uint256"
        },
        {
          "internalType": "address",
          "name": "ownerAddress",
          "type": "address"
        },
        {
          "internalType": "string",
          "name": "landOwnerName",
          "type": "string"
        },
        {
          "internalType": "string",
          "name": "location",
          "type": "string"
        },
        {
          "internalType": "uint256",
          "name": "cost",
          "type": "uint256"
        },
        {
          "internalType": "uint256",
          "name": "area",
          "type": "uint256"
        },
        {
          "internalType": "uint256",
          "name": "lengthLand",
          "type": "uint256"
        },
        {
          "internalType": "uint256",
          "name": "widthLand",
          "type": "uint256"
        }
      ],
      "stateMutability": "view",
      "type": "function",
      "constant": true
    },
    {
      "inputs": [],
      "name": "owner",
      "outputs": [
        {
          "internalType": "address",
          "name": "",
          "type": "address"
        }
      ],
      "stateMutability": "view",
      "type": "function",
      "constant": true
    },
    {
      "inputs": [],
      "name": "totalEstateCounter",
      "outputs": [
        {
          "internalType": "uint256",
          "name": "",
          "type": "uint256"
        }
      ],
      "stateMutability": "view",
      "type": "function",
      "constant": true
    },
    {
      "inputs": [
        {
          "internalType": "address",
          "name": "_landOwner",
          "type": "address"
        },
        {
          "internalType": "string",
          "name": "_landOwerName",
          "type": "string"
        },
        {
          "internalType": "string",
          "name": "_location",
          "type": "string"
        },
        {
          "internalType": "uint256",
          "name": "_cost",
          "type": "uint256"
        },
        {
          "internalType": "uint256",
          "name": "_lengthLand",
          "type": "uint256"
        },
        {
          "internalType": "uint256",
          "name": "_widthLand",
          "type": "uint256"
        }
      ],
      "name": "registerEstate",
      "outputs": [],
      "stateMutability": "nonpayable",
      "type": "function"
    },
    {
      "inputs": [
        {
          "internalType": "address",
          "name": "_buyer",
          "type": "address"
        },
        {
          "internalType": "address",
          "name": "_seller",
          "type": "address"
        },
        {
          "internalType": "uint256",
          "name": "_ID",
          "type": "uint256"
        },
        {
          "internalType": "string",
          "name": "sellerName",
          "type": "string"
        }
      ],
      "name": "transferEstate",
      "outputs": [
        {
          "internalType": "bool",
          "name": "",
          "type": "bool"
        }
      ],
      "stateMutability": "nonpayable",
      "type": "function"
    },
    {
      "inputs": [
        {
          "internalType": "address",
          "name": "_estateOwner",
          "type": "address"
        }
      ],
      "name": "getEstate",
      "outputs": [
        {
          "internalType": "uint256",
          "name": "",
          "type": "uint256"
        },
        {
          "internalType": "string",
          "name": "",
          "type": "string"
        },
        {
          "internalType": "string",
          "name": "",
          "type": "string"
        },
        {
          "internalType": "uint256",
          "name": "",
          "type": "uint256"
        },
        {
          "internalType": "uint256",
          "name": "",
          "type": "uint256"
        },
        {
          "internalType": "uint256",
          "name": "",
          "type": "uint256"
        }
      ],
      "stateMutability": "view",
      "type": "function",
      "constant": true
    },
    {
      "inputs": [],
      "name": "getNumberOfEstates",
      "outputs": [
        {
          "internalType": "uint256",
          "name": "",
          "type": "uint256"
        }
      ],
      "stateMutability": "view",
      "type": "function",
      "constant": true
    },
    {
      "inputs": [
        {
          "internalType": "address",
          "name": "_landOwner",
          "type": "address"
        }
      ],
      "name": "findEstateId",
      "outputs": [
        {
          "internalType": "uint256",
          "name": "",
          "type": "uint256"
        }
      ],
      "stateMutability": "view",
      "type": "function",
      "constant": true
    }
  ],
  "bytecode": "0x608060405234801561001057600080fd5b50336000806101000a81548173ffffffffffffffffffffffffffffffffffffffff021916908373ffffffffffffffffffffffffffffffffffffffff16021790555060006001819055506116b5806100686000396000f3fe608060405234801561001057600080fd5b50600436106100885760003560e01c80637d84c8bd1161005b5780637d84c8bd1461012e5780638da5cb5b1461014a578063f4ef4f9b14610168578063f65d23f51461019857610088565b806324a756011461008d578063257e2f84146100c2578063474f5b62146100e05780634c9f35db14610110575b600080fd5b6100a760048036038101906100a29190610f4e565b6101cf565b6040516100b996959493929190611272565b60405180910390f35b6100ca610407565b6040516100d791906111cb565b60405180910390f35b6100fa60048036038101906100f59190610f7b565b61040d565b6040516101079190611190565b60405180910390f35b6101186108ef565b60405161012591906111cb565b60405180910390f35b61014860048036038101906101439190610ffe565b6108f9565b005b610152610b55565b60405161015f919061114c565b60405180910390f35b610182600480360381019061017d9190610f4e565b610b79565b60405161018f91906111cb565b60405180910390f35b6101b260048036038101906101ad9190610f4e565b610bc5565b6040516101c69897969594939291906111e6565b60405180910390f35b6000606080600080600080600260008973ffffffffffffffffffffffffffffffffffffffff1673ffffffffffffffffffffffffffffffffffffffff16815260200190815260200160002060405180610100016040529081600082015481526020016001820160009054906101000a900473ffffffffffffffffffffffffffffffffffffffff1673ffffffffffffffffffffffffffffffffffffffff1673ffffffffffffffffffffffffffffffffffffffff168152602001600282018054610295906114be565b80601f01602080910402602001604051908101604052809291908181526020018280546102c1906114be565b801561030e5780601f106102e35761010080835404028352916020019161030e565b820191906000526020600020905b8154815290600101906020018083116102f157829003601f168201915b50505050508152602001600382018054610327906114be565b80601f0160208091040260200160405190810160405280929190818152602001828054610353906114be565b80156103a05780601f10610375576101008083540402835291602001916103a0565b820191906000526020600020905b81548152906001019060200180831161038357829003601f168201915b50505050508152602001600482015481526020016005820154815260200160068201548152602001600782015481525050905080600001518160400151826060015183608001518460c001518560e001519650965096509650965096505091939550919395565b60015481565b60008060009054906101000a900473ffffffffffffffffffffffffffffffffffffffff1673ffffffffffffffffffffffffffffffffffffffff163373ffffffffffffffffffffffffffffffffffffffff161461046857600080fd5b82600260008673ffffffffffffffffffffffffffffffffffffffff1673ffffffffffffffffffffffffffffffffffffffff16815260200190815260200160002060000154146104b657600080fd5b6040518061010001604052808481526020018673ffffffffffffffffffffffffffffffffffffffff168152602001838152602001600260008773ffffffffffffffffffffffffffffffffffffffff1673ffffffffffffffffffffffffffffffffffffffff1681526020019081526020016000206003018054610537906114be565b80601f0160208091040260200160405190810160405280929190818152602001828054610563906114be565b80156105b05780601f10610585576101008083540402835291602001916105b0565b820191906000526020600020905b81548152906001019060200180831161059357829003601f168201915b50505050508152602001600260008773ffffffffffffffffffffffffffffffffffffffff1673ffffffffffffffffffffffffffffffffffffffff168152602001908152602001600020600401548152602001600260008773ffffffffffffffffffffffffffffffffffffffff1673ffffffffffffffffffffffffffffffffffffffff168152602001908152602001600020600501548152602001600260008773ffffffffffffffffffffffffffffffffffffffff1673ffffffffffffffffffffffffffffffffffffffff168152602001908152602001600020600601548152602001600260008773ffffffffffffffffffffffffffffffffffffffff1673ffffffffffffffffffffffffffffffffffffffff16815260200190815260200160002060070154815250600260008773ffffffffffffffffffffffffffffffffffffffff1673ffffffffffffffffffffffffffffffffffffffff1681526020019081526020016000206000820151816000015560208201518160010160006101000a81548173ffffffffffffffffffffffffffffffffffffffff021916908373ffffffffffffffffffffffffffffffffffffffff1602179055506040820151816002019080519060200190610784929190610dd1565b5060608201518160030190805190602001906107a1929190610dd1565b506080820151816004015560a0820151816005015560c0820151816006015560e08201518160070155905050600260008573ffffffffffffffffffffffffffffffffffffffff1673ffffffffffffffffffffffffffffffffffffffff1681526020019081526020016000206000808201600090556001820160006101000a81549073ffffffffffffffffffffffffffffffffffffffff021916905560028201600061084c9190610e57565b60038201600061085c9190610e57565b600482016000905560058201600090556006820160009055600782016000905550508473ffffffffffffffffffffffffffffffffffffffff168473ffffffffffffffffffffffffffffffffffffffff167fddf252ad1be2c89b69c2b068fc378daa952ba7f163c4a11628f55a4df523b3ef856040516108db91906111cb565b60405180910390a360019050949350505050565b6000600154905090565b60008054906101000a900473ffffffffffffffffffffffffffffffffffffffff1673ffffffffffffffffffffffffffffffffffffffff163373ffffffffffffffffffffffffffffffffffffffff161461095157600080fd5b60008054906101000a900473ffffffffffffffffffffffffffffffffffffffff1673ffffffffffffffffffffffffffffffffffffffff163373ffffffffffffffffffffffffffffffffffffffff16146109a957600080fd5b600180546109b79190611353565b60018190555060006109c98383610d3d565b905060405180610100016040528060015481526020018873ffffffffffffffffffffffffffffffffffffffff16815260200187815260200186815260200185815260200182815260200184815260200183815250600260008973ffffffffffffffffffffffffffffffffffffffff1673ffffffffffffffffffffffffffffffffffffffff1681526020019081526020016000206000820151816000015560208201518160010160006101000a81548173ffffffffffffffffffffffffffffffffffffffff021916908373ffffffffffffffffffffffffffffffffffffffff1602179055506040820151816002019080519060200190610ac9929190610dd1565b506060820151816003019080519060200190610ae6929190610dd1565b506080820151816004015560a0820151816005015560c0820151816006015560e082015181600701559050507e7dc6ab80cc84c043b7b8d4fcafc802187470087f7ea7fccd2e17aecd0256a187600154604051610b44929190611167565b60405180910390a150505050505050565b60008054906101000a900473ffffffffffffffffffffffffffffffffffffffff1681565b6000600260008373ffffffffffffffffffffffffffffffffffffffff1673ffffffffffffffffffffffffffffffffffffffff168152602001908152602001600020600001549050919050565b60026020528060005260406000206000915090508060000154908060010160009054906101000a900473ffffffffffffffffffffffffffffffffffffffff1690806002018054610c14906114be565b80601f0160208091040260200160405190810160405280929190818152602001828054610c40906114be565b8015610c8d5780601f10610c6257610100808354040283529160200191610c8d565b820191906000526020600020905b815481529060010190602001808311610c7057829003601f168201915b505050505090806003018054610ca2906114be565b80601f0160208091040260200160405190810160405280929190818152602001828054610cce906114be565b8015610d1b5780601f10610cf057610100808354040283529160200191610d1b565b820191906000526020600020905b815481529060010190602001808311610cfe57829003601f168201915b5050505050908060040154908060050154908060060154908060070154905088565b600080610d4a8484610d56565b90508091505092915050565b600080831415610d695760009050610dcb565b60008284610d7791906113da565b9050828482610d8691906113a9565b14610dc6576040517f08c379a0000000000000000000000000000000000000000000000000000000008152600401610dbd906111ab565b60405180910390fd5b809150505b92915050565b828054610ddd906114be565b90600052602060002090601f016020900481019282610dff5760008555610e46565b82601f10610e1857805160ff1916838001178555610e46565b82800160010185558215610e46579182015b82811115610e45578251825591602001919060010190610e2a565b5b509050610e539190610e97565b5090565b508054610e63906114be565b6000825580601f10610e755750610e94565b601f016020900490600052602060002090810190610e939190610e97565b5b50565b5b80821115610eb0576000816000905550600101610e98565b5090565b6000610ec7610ec284611306565b6112e1565b905082815260208101848484011115610ee357610ee26115e2565b5b610eee84828561147c565b509392505050565b600081359050610f0581611651565b92915050565b600082601f830112610f2057610f1f6115dd565b5b8135610f30848260208601610eb4565b91505092915050565b600081359050610f4881611668565b92915050565b600060208284031215610f6457610f636115ec565b5b6000610f7284828501610ef6565b91505092915050565b60008060008060808587031215610f9557610f946115ec565b5b6000610fa387828801610ef6565b9450506020610fb487828801610ef6565b9350506040610fc587828801610f39565b925050606085013567ffffffffffffffff811115610fe657610fe56115e7565b5b610ff287828801610f0b565b91505092959194509250565b60008060008060008060c0878903121561101b5761101a6115ec565b5b600061102989828a01610ef6565b965050602087013567ffffffffffffffff81111561104a576110496115e7565b5b61105689828a01610f0b565b955050604087013567ffffffffffffffff811115611077576110766115e7565b5b61108389828a01610f0b565b945050606061109489828a01610f39565b93505060806110a589828a01610f39565b92505060a06110b689828a01610f39565b9150509295509295509295565b6110cc81611434565b82525050565b6110db81611446565b82525050565b60006110ec82611337565b6110f68185611342565b935061110681856020860161148b565b61110f816115f1565b840191505092915050565b6000611127602183611342565b915061113282611602565b604082019050919050565b61114681611472565b82525050565b600060208201905061116160008301846110c3565b92915050565b600060408201905061117c60008301856110c3565b611189602083018461113d565b9392505050565b60006020820190506111a560008301846110d2565b92915050565b600060208201905081810360008301526111c48161111a565b9050919050565b60006020820190506111e0600083018461113d565b92915050565b6000610100820190506111fc600083018b61113d565b611209602083018a6110c3565b818103604083015261121b81896110e1565b9050818103606083015261122f81886110e1565b905061123e608083018761113d565b61124b60a083018661113d565b61125860c083018561113d565b61126560e083018461113d565b9998505050505050505050565b600060c082019050611287600083018961113d565b818103602083015261129981886110e1565b905081810360408301526112ad81876110e1565b90506112bc606083018661113d565b6112c9608083018561113d565b6112d660a083018461113d565b979650505050505050565b60006112eb6112fc565b90506112f782826114f0565b919050565b6000604051905090565b600067ffffffffffffffff821115611321576113206115ae565b5b61132a826115f1565b9050602081019050919050565b600081519050919050565b600082825260208201905092915050565b600061135e82611472565b915061136983611472565b9250827fffffffffffffffffffffffffffffffffffffffffffffffffffffffffffffffff0382111561139e5761139d611521565b5b828201905092915050565b60006113b482611472565b91506113bf83611472565b9250826113cf576113ce611550565b5b828204905092915050565b60006113e582611472565b91506113f083611472565b9250817fffffffffffffffffffffffffffffffffffffffffffffffffffffffffffffffff048311821515161561142957611428611521565b5b828202905092915050565b600061143f82611452565b9050919050565b60008115159050919050565b600073ffffffffffffffffffffffffffffffffffffffff82169050919050565b6000819050919050565b82818337600083830152505050565b60005b838110156114a957808201518184015260208101905061148e565b838111156114b8576000848401525b50505050565b600060028204905060018216806114d657607f821691505b602082108114156114ea576114e961157f565b5b50919050565b6114f9826115f1565b810181811067ffffffffffffffff82111715611518576115176115ae565b5b80604052505050565b7f4e487b7100000000000000000000000000000000000000000000000000000000600052601160045260246000fd5b7f4e487b7100000000000000000000000000000000000000000000000000000000600052601260045260246000fd5b7f4e487b7100000000000000000000000000000000000000000000000000000000600052602260045260246000fd5b7f4e487b7100000000000000000000000000000000000000000000000000000000600052604160045260246000fd5b600080fd5b600080fd5b600080fd5b600080fd5b6000601f19601f8301169050919050565b7f536166654d6174683a206d756c7469706c69636174696f6e206f766572666c6f60008201527f7700000000000000000000000000000000000000000000000000000000000000602082015250565b61165a81611434565b811461166557600080fd5b50565b61167181611472565b811461167c57600080fd5b5056fea2646970667358221220d2ccdce198b7436f0fe697201410f77ae092ed3b71604046e3c2bbd0b3ceb79964736f6c63430008070033",
  "immutableReferences": {},
  "source": "// SPDX-License-Identifier: MIT\npragma solidity >=0.5.16 <0.9.0;\n///@title for saving of properties of the land of a country\n///@notice you can use this contract for registraton of lands and selling them\n///@dev all function calls in this contract are currently implemented without side effects.\nimport \"./SafeMath.sol\";\n\n\ncontract RealEstateContract{\n //Declare the struct\n    // Property struct keeps the information of the land\n\n    struct Estate {\n     uint id;\n     address ownerAddress;\n     string landOwnerName;\n     string location;\n     uint cost;\n     uint area;\n     uint lengthLand;\n     uint widthLand;\n    }\n\n    //set the owner of the contract to whoever deployed it, in this contract it is the government\n       address public owner;\n       uint public totalEstateCounter;\n\n       constructor()\n    {\n      owner = msg.sender;\n      totalEstateCounter = 0;\n    }\n     //Modifier\n    //for functions to be available only to the government ,create a modifier called isOwner\n     modifier isOwner\n    {\n        require(msg.sender == owner);\n        _;\n    }\n    event Register(address  _owner, uint _id);\n    event Transfer(address indexed _from, address indexed _to, uint _id);\n\n    ///@notice SafeMath is a library for mathematical operations\n using SafeMath for uint;\n  //Mapping\n//link addresses their property structs through this mapping\nmapping (address => Estate) public estates;\n\n\n///@notice getArea uses SafeMath's function to return area of the land\nfunction getArea(uint _lengthLand , uint _widthLand) internal pure returns(uint){\n\n    uint area = SafeMath.mul(_lengthLand, _widthLand);\n    return area;\n    }\n///@notice registerproperty function uses details of struct to register the land\n//push the property to the governments properties mapping and emit the register event.\nfunction registerEstate(address _landOwner , string memory _landOwerName,string memory _location, uint _cost ,uint _lengthLand , uint _widthLand)  public isOwner\n   isOwner {\n        totalEstateCounter = totalEstateCounter + 1;\n        uint Area = getArea(_lengthLand, _widthLand);\n       estates[_landOwner] = Estate(\n            {\n                id: totalEstateCounter,\n                ownerAddress: _landOwner,\n                landOwnerName: _landOwerName,\n                location: _location,\n                cost: _cost,\n                lengthLand : _lengthLand,\n                widthLand: _widthLand,\n                area : Area\n            });\n        emit Register(_landOwner, totalEstateCounter);\n}\n\n///@notice transferProperty function is used for transfering the property\nfunction transferEstate(address _buyer, address _seller, uint _ID , string memory sellerName ) public isOwner returns (bool){\n            require(estates[_seller].id == _ID);\n              estates[_buyer] = Estate (\n                  {\n                    ownerAddress:_buyer,\n                    landOwnerName:sellerName,\n                    location: estates[_seller].location,\n                    cost: estates[_seller].cost,\n                    lengthLand:estates[_seller].lengthLand,\n                    widthLand: estates[_seller].widthLand,\n                    area: estates[_seller].area,\n                    id: _ID\n                  });\n                delete estates[_seller];\n\n                emit Transfer(_seller, _buyer, _ID);\n                return true;\n}\n    ///@notice getProperties function is used to view the property details of someones account\nfunction getEstate(address _estateOwner) public view returns (uint ,string memory, string memory, uint, uint ,uint)\n    {\n        Estate memory e = estates [_estateOwner];\n        return(e.id , e.landOwnerName, e.location, e.cost, e.lengthLand, e.widthLand);\n}\n    ///@notice getNoOfProperties function is used to retern the number of properties the account has\nfunction getNumberOfEstates() public  view returns (uint)\n    {\n        return totalEstateCounter;\n}\nfunction findEstateId(address _landOwner) public view returns(uint){\n      return (estates [_landOwner].id);\n}\n}",
  "sourcePath": "/home/sodaba/faeza/contracts/RealEstateContract.sol",
  "compiler": {
    "name": "solc",
    "version": "0.8.7+commit.e28d00a7.Emscripten.clang"
  },
  "schemaVersion": "3.4.3",
  "updatedAt": "2022-01-05T10:13:29.550Z",
  "networkType": "ethereum",
  "devdoc": {
    "kind": "dev",
    "methods": {},
    "version": 1
  },
  "userdoc": {
    "kind": "user",
    "methods": {
      "getEstate(address)": {
        "notice": "getProperties function is used to view the property details of someones account"
      },
      "getNumberOfEstates()": {
        "notice": "getNoOfProperties function is used to retern the number of properties the account has"
      },
      "registerEstate(address,string,string,uint256,uint256,uint256)": {
        "notice": "registerproperty function uses details of struct to register the land"
      },
      "transferEstate(address,address,uint256,string)": {
        "notice": "transferProperty function is used for transfering the property"
      }
    },
    "version": 1
  }
}